:100000000C9463000C948B000C948B000C948B006C
:100010000C948B000C948B000C948B000C948B0034
:100020000C948B000C948B000C948B000C948B0024
:100030000C948B000C948B000C948B000C948B0014
:100040000C943F030C948B000C9419020C94F30154
:100050000C948B000C948B000C948B000C948B00F4
:100060000C948B000C948B000000000023002600F1
:10007000290004040404040404040202020202022B
:10008000030303030303010204081020408001025C
:1000900004081020010204081020000000080002DB
:1000A0000100000304070000000000000000000041
:1000B0000000240027002A0000000000250028007E
:1000C0002B003B04051B11241FBECFEFD8E0DEBF81
:1000D000CDBF11E0A0E0B1E0E6EBFEE302C0059089
:1000E0000D92AC36B107D9F72DE0ACE6B1E001C016
:1000F0001D92AC39B207E1F710E0C2E6D0E004C0CF
:100100002197FE010E94431FC136D107C9F70E9403
:10011000171B0C944E1F0C940000FC0180819181F0
:10012000FC0197FD379623E0F595E7952A95E1F7D1
:10013000E552F34F68E070E00E941B1F20E830E0BA
:10014000A90102C0559547958A95E2F7CA019381A6
:10015000892B83830895CF92DF92EF92FF920F93C2
:100160001F93CF93DF936C017A018B01C0E0D0E045
:10017000CE15DF0589F0D8016D918D01D601ED9185
:10018000FC910190F081E02DC6010995892B11F4B5
:100190007E0102C02196ECCFC701DF91CF911F9164
:1001A0000F91FF90EF90DF90CF900895FC01918D1B
:1001B000828D981761F0828DDF01A80FB11D5D96C9
:1001C0008C91928D9F5F9F73928F90E008958FEF37
:1001D0009FEF0895FC01918D828D981731F0828DEB
:1001E000E80FF11D858D90E008958FEF9FEF089542
:1001F000FC01918D228D892F90E0805C9F4F821BA6
:1002000091098F73992708958CE691E00E94F80078
:1002100021E0892B09F420E0822F0895FC01848DD0
:10022000DF01A80FB11DA35ABF4F2C91848D90E020
:1002300001968F739927848FA689B7892C93A089FB
:10024000B1898C9180648C93938D848D981306C0B2
:100250000288F389E02D80818F7D80830895EF925D
:10026000FF920F931F93CF93DF93EC0181E0888F70
:100270009B8D8C8D981305C0E889F989808185FD57
:1002800024C0F62E0B8D10E00F5F1F4F0F73112748
:10029000E02E8C8DE8120CC00FB607FCFACFE8896F
:1002A000F989808185FFF5CFCE010E940E01F1CF43
:1002B0008B8DFE01E80FF11DE35AFF4FF0820B8F8B
:1002C000EA89FB898081806207C0EE89FF896083AB
:1002D000E889F98980818064808381E090E0DF9102
:1002E000CF911F910F91FF90EF900895CF93DF93DF
:1002F000EC01888D8823C9F0EA89FB89808185FD1E
:1003000005C0A889B9898C9186FD0FC00FB607FC7E
:10031000F5CF808185FFF2CFA889B9898C9185FFBF
:10032000EDCFCE010E940E01E7CFDF91CF9108956E
:1003300080E090E0892B29F00E94040181110C9447
:10034000000008950E94491FCF93DF93282F30E0CB
:10035000F901E656FF4F8491F901EA57FF4FD49116
:10036000F901EE58FF4FC491CC2391F081110E9406
:100370007002EC2FF0E0EE0FFF1FE859FF4FA59140
:10038000B491EC91ED2381E090E021F480E002C093
:1003900080E090E0DF91CF910895FF920F931F933B
:1003A000CF93DF93F82E062FC0E0D0E010E061E09D
:1003B000802F0E9499028F2D0E94A4010C2E01C053
:1003C000880F0A94EAF7182B60E0802F0E949902A8
:1003D0002196C830D10559F7812FDF91CF911F9118
:1003E0000F91FF9008951F920F920FB60F92112454
:1003F0002F933F934F935F936F937F938F939F932D
:10040000AF93BF93EF93FF938CE691E00E940E01B0
:10041000FF91EF91BF91AF919F918F917F916F91DC
:100420005F914F913F912F910F900FBE0F901F90B2
:1004300018951F920F920FB60F9211242F938F933E
:100440009F93EF93FF93E0917C01F0917D01808178
:10045000E0918201F091830182FD12C09081809130
:1004600085018F5F8F7320918601821751F0E09193
:100470008501F0E0E459FE4F958F8093850101C01E
:100480008081FF91EF919F918F912F910F900FBEDF
:100490000F901F9018953FB7F8948091980D909108
:1004A000990DA0919A0DB0919B0D26B5A89B05C002
:1004B0002F3F19F00196A11DB11D3FBFBA2FA92FE3
:1004C000982F8827820F911DA11DB11DBC01CD0160
:1004D00042E0660F771F881F991F4A95D1F708954C
:1004E000833081F028F4813099F08230A1F00895B2
:1004F0008730A9F08830B9F08430D1F48091800041
:100500008F7D03C0809180008F7780938000089555
:1005100084B58F7702C084B58F7D84BD08958091A6
:10052000B0008F7703C08091B0008F7D8093B000C2
:1005300008951F93CF93DF93282F30E0F901E656FB
:10054000FF4F8491F901EA57FF4FD491F901EE581A
:10055000FF4FC491CC23C9F0162F81110E94700265
:10056000EC2FF0E0EE0FFF1FE854FF4FA591B49180
:100570008FB7F894111105C09C91ED2FE095E923F8
:1005800002C0EC91ED2BEC938FBFDF91CF911F91C7
:100590000895CF93DF9390E0FC01EA57FF4F249139
:1005A000FC01EE58FF4F8491882361F190E0880FA1
:1005B000991FFC01E255FF4FC591D491FC01E8540D
:1005C000FF4FA591B491611109C09FB7F89488813C
:1005D000209582238883EC912E230BC0623061F436
:1005E0009FB7F8943881822F809583238883EC917C
:1005F0002E2B2C939FBF06C08FB7F894E8812E2B2B
:1006000028838FBFDF91CF9108958F929F92AF92F1
:10061000BF92CF92DF92EF92FF926B017C010E941A
:100620004B024B015C01C114D104E104F104F1F06F
:100630000E944B02DC01CB0188199909AA09BB0968
:10064000883E9340A105B10570F321E0C21AD1089C
:10065000E108F10888EE880E83E0981EA11CB11C09
:10066000C114D104E104F10419F7DDCFFF90EF903C
:10067000DF90CF90BF90AF909F908F9008951F9282
:100680000F920FB60F9211242F933F938F939F9346
:10069000AF93BF9380917C0D90917D0DA0917E0DC5
:1006A000B0917F0D3091970D23E0230F2D3720F46B
:1006B0000196A11DB11D05C026E8230F0296A11DBC
:1006C000B11D2093970D80937C0D90937D0DA09389
:1006D0007E0DB0937F0D8091980D9091990DA09112
:1006E0009A0DB0919B0D0196A11DB11D8093980D9F
:1006F0009093990DA0939A0DB0939B0DBF91AF91DC
:100700009F918F913F912F910F900FBE0F901F904F
:1007100018952F923F924F925F926F927F928F9295
:100720009F92AF92BF92CF92DF92EF92FF920F9380
:100730001F93CF93DF9300D0CDB7DEB78C014983F1
:100740002A83660F771FF801EA5AFF4FE080F18095
:10075000EE0CFF1CF801CF01801B910B8E159F053D
:1007600014F41192F8CF8981F801E60FF71F818305
:100770008A818083580184E5A80EB11C60E0F501F0
:1007800080810E949902E00EF11E4801F2E58F0E71
:10079000911C380180E5680E711CC701801B910B0C
:1007A0001816190624F5F701C2907F01F401308074
:1007B000F301208087E0482E512CD12CB601042C67
:1007C00002C0759567950A94E2F761707727822DCC
:1007D0000E94990261E0832D0E94990260E0832DBE
:1007E0000E949902F1E04F1A510840F7D6CF61E01C
:1007F000F50180810F900F90DF91CF911F910F91A4
:10080000FF90EF90DF90CF90BF90AF909F908F9030
:100810007F906F905F904F903F902F900C94990233
:10082000CF92DF92EF92FF920F931F93CF93DF93BC
:100830008C017B016B0183E0CC0CDD1C8A95E1F718
:10084000C1E0D0E0FE01EC0DFD1DE00FF11F1786A9
:1008500020E04C2FB701C8010E9489032196C930BE
:10086000D10581F7DF91CF911F910F91FF90EF900C
:10087000DF90CF9008952F923F924F925F926F92A8
:100880007F928F929F92AF92BF92CF92DF92EF9220
:10089000FF920F931F93CF93DF9300D0CDB7DEB7B6
:1008A00010926F0110926E0188EE93E0A0E0B0E02C
:1008B0008093700190937101A0937201B0937301C2
:1008C0008AE091E090936D0180936C0165EC70E09B
:1008D000709379016093780184EC90E090937B01B0
:1008E00080937A0180EC682E712C70927D01609269
:1008F0007C0191EC492E512C50927F0140927E0157
:1009000022EC222E312C3092810120928001E6ECE3
:10091000F0E0F0938301E093820110928501109240
:100920008601109287011092880110920C02109299
:100930000B0210920E0210920D0210920F021092F2
:100940001002109211026091090270910A027A83DA
:100950006983A1E0B0E0B0931402A0931302109257
:10096000160210921502109217021092180210929D
:100970001902E2E0F0E0F0931C02E0931B021092F7
:100980001E0210921D0210921F021092200210925D
:10099000210233E0E32EF12CF0922402E0922302B4
:1009A000109226021092250210922702109228021D
:1009B0001092290264E070E070932C0260932B0285
:1009C00010922E0210922D0210922F0210923002DD
:1009D0001092310205E010E01093340200933302CC
:1009E000109236021092350210923702109238029D
:1009F0001092390246E0A42EB12CB0923C02A09293
:100A00003B0210923E0210923D0210923F02109261
:100A100040021092410287E090E09093440280935C
:100A20004302109246021092450210924702109221
:100A300048021092490258E0852E912C90924C0267
:100A400080924B0210924E0210924D0210924F0271
:100A5000109250021092510249E050E0509354021B
:100A60004093530210925602109255021092570270
:100A700010925802109259022AE030E030935C0242
:100A800020935B0210925E0210925D0210925F0250
:100A900010926002109261028BE090E090936402E9
:100AA00080936302109266021092650210926702B0
:100AB00010926802109269028CE090E090936C02B0
:100AC00080936B0210926E0210926D0210926F0270
:100AD00010927002109271028DE090E09093740277
:100AE0008093730210927602109275021092770230
:100AF00010927802109279028EE090E090937C023E
:100B000080937B0210927E0210927D0210927F02EF
:100B100010928002109281028FE090E09093840204
:100B200080938302109286021092850210928702AF
:100B3000109288021092890280E190E090938C02DA
:100B400080938B0210928E0210928D0210928F026F
:100B5000109290021092910281E190E090939402A1
:100B6000809393021092960210929502109297022F
:100B7000109298021092990282E190E090939C0268
:100B800080939B0210929E0210929D0210929F02EF
:100B90001092A0021092A10283E190E09093A4022F
:100BA0008093A3021092A6021092A5021092A702AF
:100BB0001092A8021092A90284E190E09093AC02F6
:100BC0008093AB021092AE021092AD021092AF026F
:100BD0001092B0021092B10285E190E09093B402BD
:100BE0008093B3021092B6021092B5021092B7022F
:100BF0001092B8021092B90286E190E09093BC0284
:100C00008093BB021092BE021092BD021092BF02EE
:100C10001092C0021092C10287E190E09093C4024A
:100C20008093C3021092C6021092C5021092C702AE
:100C300081E08093C8021092C90298E1C92ED12C9C
:100C4000D092CC02C092CB021092CE021092CD0272
:100C50001092CF021092D0021092D10299E1C92EC7
:100C6000D12CD092D402C092D302B093D602A093DA
:100C7000D5021092D7021092D8021092D9029AE1AE
:100C8000C92ED12CD092DC02C092DB02B093DE02DE
:100C9000A093DD021092DF021092E0021092E102B6
:100CA0009BE1C92ED12CD092E402C092E302B09312
:100CB000E602A093E5021092E7021092E802109279
:100CC000E9029CE1C92ED12CD092EC02C092EB0239
:100CD000B093EE02A093ED021092EF021092F00298
:100CE0001092F1029DE1C92ED12CD092F402C09253
:100CF000F302B093F602A093F5021092F70210925D
:100D0000F8021092F9029EE1C92ED12CD092FC0279
:100D1000C092FB02B093FE02A093FD021092FF026C
:100D200010920003109201039FE1C92ED12CD092A2
:100D30000403C0920303B0930603A093050310922B
:100D40000703109208031092090390E2C92ED12CD8
:100D5000D0920C03C0920B03B0930E03A0930D032B
:100D600010920F03109210031092110391E2C92EFA
:100D7000D12CD0921403C0921303B0931603A09306
:100D8000150310921703109218031092190392E2A0
:100D9000C92ED12CD0921C03C0921B03B0931E030A
:100DA000A0931D0310921F031092200310922103A1
:100DB00093E2C92ED12CD0922403C0922303B09386
:100DC0002603A09325031092270310922803109264
:100DD000290394E2C92ED12CD0922C03C0922B036C
:100DE000B0932E03A0932D0310922F031092300383
:100DF0001092310395E2C92ED12CD0923403C092C7
:100E00003303B0933603A093350310923703109247
:100E100038031092390396E2C92ED12CD0923C03AC
:100E2000C0923B03B0933E03A0933D0310923F0357
:100E3000109240031092410397E2C92ED12CD09218
:100E40004403C0924303B0934603A093450310921A
:100E50004703109248031092490398E2C92ED12CFF
:100E6000D0924C03C0924B03B0934E03A0934D031A
:100E700010924F03109250031092510399E2C92E21
:100E8000D12CD0925403C0925303B0935603A09335
:100E900055031092570310925803109259039AE287
:100EA000C92ED12CD0925C03C0925B03B0935E0339
:100EB000A0935D0310925F03109260031092610390
:100EC0009BE2C92ED12CD0926403C0926303B093ED
:100ED0006603A09365031092670310926803109253
:100EE00069039CE2C92ED12CD0926C03C0926B0393
:100EF000B0936E03A0936D0310926F038093700301
:100F0000109271039DE2C92ED12CD0927403C0922D
:100F10007303B0937603A093750310927703109236
:100F20007803109279039EE2C92ED12CD0927C03D3
:100F3000C0927B03B0937E03A0937D0310927F0346
:100F400010928003109281039FE2C92ED12CD0927F
:100F50008403C0928303B0938603A0938503109209
:100F60008703109288031092890390E3C92ED12C35
:100F7000D0928C03C0928B03B0938E03A0938D0309
:100F800010928F03109290031092910391E3C92E57
:100F9000D12CD0929403C0929303B0939603A09364
:100FA0009503109297031092980310929903A2E36D
:100FB000B0E0B0939C03A0939B03F0939E03E09357
:100FC0009D0310929F038093A0031092A103A3E3BB
:100FD000B0E0B093A403A093A303F093A603E0931F
:100FE000A5031092A7031092A8031092A903A4E3EB
:100FF000B0E0B093AC03A093AB03F093AE03E093E7
:10100000AD031092AF031092B0031092B103A5E3A9
:10101000B0E0B093B403A093B303F093B603E093AE
:10102000B5031092B7031092B8031092B903A6E368
:10103000B0E0B093BC03A093BB03F093BE03E09376
:10104000BD031092BF031092C0031092C103A7E327
:10105000B0E0B093C403A093C303F093C603E0933E
:10106000C5031092C7031092C8031092C903A8E3E6
:10107000B0E0B093CC03A093CB03F093CE03E09306
:10108000CD031092CF031092D0031092D103A9E3A5
:10109000B0E0B093D403A093D303F093D603E093CE
:1010A000D5031092D7031092D8031092D903AAE364
:1010B000B0E0B093DC03A093DB03F093DE03E09396
:1010C000DD031092DF031092E0031092E103ABE323
:1010D000B0E0B093E403A093E303F093E603E0935E
:1010E000E5031092E7031092E8031092E903ACE3E2
:1010F000B0E0B093EC03A093EB03F093EE03E09326
:10110000ED031092EF031092F0031092F103ADE3A0
:10111000B0E0B093F403A093F303F093F603E093ED
:10112000F5031092F7031092F8031092F903AEE35F
:10113000B0E0B093FC03A093FB03F093FE03E093B5
:10114000FD031092FF031092000410920104AFE31C
:10115000B0E0B0930404A0930304F0930604E0937A
:101160000504109207041092080410920904A0E4E8
:10117000B0E0B0930C04A0930B04F0930E04E09342
:101180000D0410920F041092100410921104A1E4A7
:10119000B0E0B0931404A0931304F0931604E0930A
:1011A0001504109217041092180410921904A2E466
:1011B000B0E0B0931C04A0931B04F0931E04E093D2
:1011C0001D0410921F048093200410922104A3E4B4
:1011D000B0E0B0932404A0932304F0932604E0939A
:1011E0002504109227041092280410922904A4E4E4
:1011F000B0E0B0932C04A0932B04F0932E04E09362
:101200002D0410922F041092300410923104A5E4A2
:10121000B0E0B0933404A0933304F0933604E09329
:101220003504109237041092380410923904A6E461
:10123000B0E0B0933C04A0933B04F0933E04E093F1
:101240003D0410923F041092400410924104A7E420
:10125000B0E0B0934404A0934304F0934604E093B9
:101260004504109247041092480410924904A8E4DF
:10127000B0E0B0934C04A0934B04F0934E04E09381
:101280004D0410924F041092500410925104A9E49E
:10129000B0E0B0935404A0935304F0935604E09349
:1012A0005504109257041092580410925904AAE45D
:1012B000B0E0B0935C04A0935B04F0935E04E09311
:1012C0005D0410925F041092600410926104ABE41C
:1012D000B0E0B0936404A0936304F0936604E093D9
:1012E0006504109267041092680410926904ECE49B
:1012F000F0E0F0936C04E0936B04F0926E04E092E3
:101300006D0480936F041092700410927104EDE4E8
:10131000F0E0F0937404E0937304F0927604E092AA
:101320007504809377041092780410927904EEE4A7
:10133000F0E0F0937C04E0937B04F0927E04E09272
:101340007D0480937F041092800410928104EFE466
:10135000F0E0F0938404E0938304F0928604E0923A
:101360008504109287041092880410928904E0E5A5
:10137000F0E0F0938C04E0938B04F0928E04E09202
:101380008D0480938F041092900410929104E1E5F3
:10139000F0E0F0939404E0939304F0929604E092CA
:1013A0009504809397041092980410929904E2E5B2
:1013B000F0E0F0939C04E0939B04F0929E04E09292
:1013C0009D0480939F041092A0041092A104E3E571
:1013D000F0E0F093A404E093A304F092A604E0925A
:1013E000A5048093A7048093A8041092A904E4E5BF
:1013F000F0E0F093AC04E093AB04F092AE04E09222
:10140000AD048093AF041092B0041092B104E5E5EE
:10141000F0E0F093B404E093B304F092B604E092E9
:10142000B5048093B7041092B8041092B904E6E5AD
:10143000F0E0F093BC04E093BB04F092BE04E092B1
:10144000BD041092BF041092C0041092C104E7E5DD
:10145000F0E0F093C404E093C304F092C604E09279
:10146000C5041092C7041092C8041092C904E8E59C
:10147000F0E0F093CC04E093CB04F092CE04E09241
:10148000CD048093CF041092D0041092D104E9E5EA
:10149000F0E0F093D404E093D3047093D604609307
:1014A000D5041092D7041092D8041092D904EAE51A
:1014B000F0E0F093DC04E093DB047093DE046093CF
:1014C000DD041092DF041092E0041092E104EBE5D9
:1014D000F0E0F093E404E093E3047093E604609397
:1014E000E5041092E7041092E8041092E904ECE598
:1014F000F0E0F093EC04E093EB047093EE0460935F
:10150000ED041092EF041092F0041092F104EDE556
:10151000F0E0F093F404E093F3047093F604609326
:10152000F5041092F7041092F8041092F904EEE515
:10153000F0E0F093FC04E093FB047093FE046093EE
:10154000FD041092FF041092000510920105EFE5D2
:10155000F0E0F0930405E0930305709306056093B3
:101560000505109207051092080510920905E0E69E
:10157000F0E0F0930C05E0930B0570930E0560937B
:101580000D0510920F051092100510921105E1E65D
:10159000F0E0F0931405E093130570931605609343
:1015A0001505109217051092180510921905E2E61C
:1015B000F0E0F0931C05E0931B0570931E0560930B
:1015C0001D0510921F051092200510922105E3E6DB
:1015D000F0E0F0932405E0932305709326056093D3
:1015E0002505109227051092280510922905E4E69A
:1015F000F0E0F0932C05E0932B0570932E0560939B
:101600002D0510922F051092300510923105E5E658
:10161000F0E0F0933405E093330570933605609362
:101620003505109237058093380510923905E6E6A6
:10163000F0E0F0933C05E0933B0570933E0560932A
:101640003D0510923F051092400510924105E7E6D6
:10165000F0E0F0934405E0934305709346056093F2
:101660004505109247051092480510924905E8E695
:10167000F0E0F0934C05E0934B0570934E056093BA
:101680004D0510924F051092500510925105E9E654
:10169000F0E0F0935405E093530570935605609382
:1016A0005505109257051092580510925905EAE613
:1016B000F0E0F0935C05E0935B0570935E0560934A
:1016C0005D0510925F051092600510926105EBE6D2
:1016D000F0E0F0936405E093630570936605609312
:1016E0006505109267051092680510926905ECE691
:1016F000F0E0F0936C05E0936B0570936E056093DA
:101700006D0510926F051092700510927105EDE64F
:10171000F0E0F0937405E0937305709376056093A1
:101720007505109277051092780510927905EEE60E
:10173000F0E0F0937C05E0937B0570937E05609369
:101740007D0510927F051092800510928105EFE6CD
:10175000F0E0F0938405E093830570938605609331
:101760008505109287051092880510928905E0E79B
:10177000F0E0F0938C05E0938B0570938E056093F9
:101780008D0510928F051092900510929105E1E75A
:10179000F0E0F0939405E0939305709396056093C1
:1017A0009505109297051092980510929905E2E719
:1017B000F0E0F0939C05E0939B0570939E05609389
:1017C0009D0510929F051092A0051092A105E3E7D8
:1017D000F0E0F093A405E093A3057093A605609351
:1017E000A5051092A7051092A8051092A90564E717
:1017F00070E07093AC056093AB051093AE05009359
:10180000AD051092AF051092B0051092B10565E7D5
:1018100070E07093B4056093B3051093B605009320
:10182000B5051092B7051092B8051092B90566E794
:1018300070E07093BC056093BB051093BE050093E8
:10184000BD051092BF058093C0051092C10567E7E2
:1018500070E07093C4056093C3051093C6050093B0
:10186000C5051092C7051092C8051092C90568E712
:1018700070E07093CC056093CB051093CE05009378
:10188000CD051092CF051092D0051092D10569E7D1
:1018900070E07093D4056093D3051093D605009340
:1018A000D5051092D7051092D8051092D9056AE790
:1018B00070E07093DC056093DB051093DE05009308
:1018C000DD051092DF058093E0051092E1056BE7DE
:1018D00070E07093E4056093E3051093E6050093D0
:1018E000E5051092E7051092E8051092E9056CE70E
:1018F00070E07093EC056093EB051093EE05009398
:10190000ED051092EF051092F0051092F1056DE7CC
:1019100070E07093F4056093F3051093F60500935F
:10192000F5051092F7051092F8051092F9056EE78B
:1019300070E07093FC056093FB051093FE05009327
:10194000FD051092FF0510920006109201066FE748
:1019500070E07093040660930306109306060093EC
:10196000050610920706109208061092090660E814
:1019700070E070930C0660930B0610930E060093B4
:101980000D0610920F06809310061092110661E862
:1019900070E070931406609313061093160600937C
:1019A000150610921706109218061092190662E892
:1019B00070E070931C0660931B0610931E06009344
:1019C0001D0610921F06109220061092210663E851
:1019D00070E070932406609323061093260600930C
:1019E000250610922706109228061092290664E810
:1019F00070E070932C0660932B0610932E060093D4
:101A00002D0610922F06809330061092310665E85D
:101A100070E070933406609333061093360600939B
:101A2000350610923706109238061092390666E88D
:101A300070E070933C0660933B06B0923E06A09225
:101A40003D0610923F06109240061092410667E84C
:101A500070E07093440660934306B0924606A092ED
:101A6000450610924706109248061092490668E80B
:101A700070E070934C0660934B06B0924E06A092B5
:101A80004D0610924F06109250061092510669E8CA
:101A900070E07093540660935306B0925606A0927D
:101AA00055061092570610925806109259066AE889
:101AB00070E070935C0660935B06B0925E06A09245
:101AC0005D0610925F0610926006109261066BE848
:101AD00070E07093640660936306B0926606A0920D
:101AE00065061092670610926806109269066CE807
:101AF00070E070936C0660936B06B0926E06A092D5
:101B00006D0610926F0610927006109271066DE8C5
:101B100070E07093740660937306B0927606A0929C
:101B200075061092770610927806109279066EE884
:101B300070E070937C0660937B06B0927E06A09264
:101B40007D0610927F0610928006109281066FE843
:101B500070E07093840660938306B0928606A0922C
:101B6000850610928706109288061092890660E911
:101B700070E070938C0660938B06B0928E06A092F4
:101B80008D0610928F06109290061092910661E9D0
:101B900070E07093940660939306B0929606A092BC
:101BA000950610929706109298061092990662E98F
:101BB00070E070939C0660939B06B0929E06A09284
:101BC0009D0610929F061092A0061092A10663E94E
:101BD00070E07093A4066093A306B092A606A0924C
:101BE000A5061092A7061092A8061092A90664E90D
:101BF00070E07093AC066093AB06B092AE06A09214
:101C0000AD061092AF061092B0061092B10665E9CB
:101C100070E07093B4066093B306B092B606A092DB
:101C2000B5061092B7061092B8061092B90666E98A
:101C300070E07093BC066093BB06B092BE06A092A3
:101C4000BD061092BF061092C0061092C10667E949
:101C500070E07093C4066093C306B092C606A0926B
:101C6000C5061092C7061092C8061092C90668E908
:101C700070E07093CC066093CB06B092CE06A09233
:101C8000CD061092CF061092D0061092D10669E9C7
:101C900070E07093D4066093D306B092D606A092FB
:101CA000D5061092D7068093D8061092D9066AE915
:101CB00070E07093DC066093DB06B092DE06A092C3
:101CC000DD061092DF061092E0061092E1066BE945
:101CD00070E07093E4066093E306B092E606A0928B
:101CE000E5061092E7061092E8061092E9066CE904
:101CF00070E07093EC066093EB06B092EE06A09253
:101D0000ED061092EF061092F0061092F1066DE9C2
:101D100070E07093F4066093F306B092F606A0921A
:101D2000F5061092F7061092F8061092F9066EE981
:101D300070E07093FC066093FB06B092FE06A092E2
:101D4000FD061092FF0610920007109201076FE93E
:101D500070E07093040760930307B0920607A092A7
:101D6000050710920707109208071092090760EA0A
:101D700070E070930C0760930B07E7E0F0E0F093DE
:101D80000E07E0930D0710920F07109210071092A4
:101D9000110761EA70E07093140760931307F093E2
:101DA0001607E09315071092170710921807109264
:101DB000190762EA70E070931C0760931B07F093A9
:101DC0001E07E0931D0710921F0710922007109224
:101DD000210763EA70E07093240760932307F09370
:101DE0002607E093250710922707109228071092E4
:101DF000290764EA70E070932C0760932B07F09337
:101E00002E07E0932D0710922F07109230071092A3
:101E1000310765EA70E07093340760933307F093FD
:101E20003607E09335071092370710923807109263
:101E3000390766EA70E070933C0760933B07F093C4
:101E40003E07E0933D0710923F0710924007109223
:101E5000410767EA70E07093440760934307F0938B
:101E60004607E093450710924707109248071092E3
:101E7000490768EA70E070934C0760934B07F09352
:101E80004E07E0934D0710924F07109250071092A3
:101E9000510769EA70E07093540760935307F09319
:101EA0005607E09355071092570710925807109263
:101EB00059076AEA70E070935C0760935B07F093E0
:101EC0005E07E0935D0710925F07809360071092B2
:101ED00061076BEA70E07093640760936307F093A7
:101EE0006607E093650710926707109268071092E3
:101EF00069076CEA70E070936C0760936B07F0936E
:101F00006E07E0936D0710926F07109270071092A2
:101F100071076DEA70E07093740760937307F09334
:101F20007607E09375071092770710927807109262
:101F300079076EEA70E070937C0760937B07F093FB
:101F40007E07E0937D0710927F0710928007109222
:101F500081076FEA70E07093840760938307F093C2
:101F60008607E093850710928707109288071092E2
:101F7000890760EB70E070938C0760938B07F09398
:101F80008E07E0938D0710928F07109290071092A2
:101F9000910761EB70E07093940760939307F0935F
:101FA0009607E09395071092970710929807109262
:101FB000990762EB70E070939C0760939B07F09326
:101FC0009E07E0939D0710929F071092A007109222
:101FD000A10763EB70E07093A4076093A307F093ED
:101FE000A607E093A5071092A7071092A8071092E2
:101FF000A90764EB70E07093AC076093AB07F093B4
:10200000AE07E093AD071092AF071092B0071092A1
:10201000B10765EB70E07093B4076093B307F0937A
:10202000B607E093B5071092B7071092B807109261
:10203000B90766EB70E07093BC076093BB07F09341
:10204000BE07E093BD071092BF071092C007109221
:10205000C10767EB70E07093C4076093C307F09308
:10206000C607E093C5071092C7071092C8071092E1
:10207000C90768EB70E07093CC076093CB07F093CF
:10208000CE07E093CD071092CF071092D0071092A1
:10209000D10769EB70E07093D4076093D307F09396
:1020A000D607E093D5071092D7071092D807109261
:1020B000D9076AEB70E07093DC076093DB07F0935D
:1020C000DE07E093DD071092DF071092E007109221
:1020D000E1076BEB70E07093E4076093E307F09324
:1020E000E607E093E5071092E7071092E8071092E1
:1020F000E9076CEB70E07093EC076093EB07F093EB
:10210000EE07E093ED071092EF071092F0071092A0
:10211000F1076DEB70E07093F4076093F307F093B1
:10212000F607E093F5071092F7071092F807109260
:10213000F9076EEB70E07093FC076093FB07F09378
:10214000FE07E093FD071092FF071092000810921F
:1021500001086FEB70E07093040860930308F0933C
:102160000608E093050810920708109208081092DC
:10217000090870920C0860920B08F0930E08E09327
:102180000D0810920F08109210081092110850922A
:10219000140840921308F0931608E0931508109263
:1021A0001708109218081092190830921C082092F3
:1021B0001B08F0931E08E0931D0810921F08109250
:1021C00020081092210863EC70E07093240860935B
:1021D0002308F0932608E093250810922708109210
:1021E00028081092290864EC70E070932C08609322
:1021F0002B08F0932E08E0932D0810922F081092D0
:10220000300810923108E5ECF0E0F0933408E093E8
:10221000330867E070E070933608609335081092D9
:1022200037081092380810923908E6ECF0E0F09385
:102230003C08E0933B0870933E0860933D08109281
:102240003F08109240081092410867EC70E07093CC
:1022500044086093430867E070E070934608609319
:10226000450810924708109248081092490868ECF7
:1022700070E070934C0860934B08E7E0F0E0F09357
:102280004E08E0934D0810924F081092500810929B
:10229000510869EC70E07093540860935308F09310
:1022A0005608E0935508109257081092580810925B
:1022B00059086AEC70E070935C0860935B08909238
:1022C0005E0880925D0810925F081092600810927C
:1022D00061086BEC70E070936408609363089092FF
:1022E000660880926508109267081092680810923C
:1022F00069086CEC70E070936C0860936B089092C6
:102300006E0880926D0810926F08109270081092FB
:1023100071086DEC70E0709374086093730890928C
:1023200076088092750810927708109278081092BB
:1023300079086EEC70E070937C0860937B08909253
:102340007E0880927D0810927F081092800810927B
:1023500081086FEC70E0709384086093830890921A
:10236000860880928508109287081092880810923B
:10237000890860ED70E070938C0860938B089092F0
:102380008E0880928D0810928F08109290081092FB
:10239000910861ED70E070939408609393089092B7
:1023A00096088092950810929708109298081092BB
:1023B000990862ED70E070939C0860939B0890927E
:1023C0009E0880929D0810929F081092A00810927B
:1023D000A10863ED70E07093A4086093A308909245
:1023E000A6088092A5081092A7081092A80810923B
:1023F000A90864ED70E07093AC086093AB0890920C
:10240000AE088092AD081092AF081092B0081092FA
:10241000B10865ED70E07093B4086093B3089092D2
:10242000B6088092B5081092B7081092B8081092BA
:10243000B90866ED70E07093BC086093BB08909299
:10244000BE088092BD081092BF088093C008109209
:10245000C10867ED70E07093C4086093C30850939F
:10246000C6084093C5081092C7081092C808109279
:10247000C90868ED70E07093CC086093CB08509366
:10248000CE084093CD081092CF081092D008109239
:10249000D10869ED70E07093D4086093D30850932D
:1024A000D6084093D5081092D7081092D8081092F9
:1024B000D9086AED70E07093DC086093DB085093F4
:1024C000DE084093DD081092DF081092E0081092B9
:1024D000E1086BED70E07093E4086093E3085093BB
:1024E000E6084093E5081092E7081092E808109279
:1024F000E9086CED70E07093EC086093EB08509382
:10250000EE084093ED081092EF081092F008109238
:10251000F1086DED70E07093F4086093F308509348
:10252000F6084093F5081092F7081092F8081092F8
:10253000F9086EED70E07093FC086093FB0850930F
:10254000FE084093FD081092FF08109200091092B7
:1025500001096FED70E070930409609303095093D3
:102560000609409305091092070910920809109274
:10257000090960EE70E070930C0960930B095093A9
:102580000E0940930D0910920F0910921009109234
:10259000110961EE70E07093140960931309509370
:1025A00016094093150910921709109218091092F4
:1025B000190962EE70E070931C0960931B09509337
:1025C0001E0940931D0910921F09109220091092B4
:1025D000210963EE70E070932409609323095093FE
:1025E0002609409325091092270910922809109274
:1025F000290964EE70E070932C0960932B095093C5
:102600002E0940932D0910922F0910923009109233
:10261000310965EE70E0709334096093330950938B
:1026200036094093350910923709109238091092F3
:10263000390966EE70E070933C0960933B09509352
:102640003E0940933D0910923F09109240091092B3
:10265000410967EE70E07093440960934309509319
:102660004609409345091092470910924809109273
:10267000490968EE70E070934C0960934B095093E0
:102680004E0940934D0910924F0910925009109233
:10269000510969EE70E070935409609353095093A7
:1026A00056094093550910925709109258091092F3
:1026B00059096AEE70E070935C0960935B0950936E
:1026C0005E0940935D0910925F09109260091092B3
:1026D00061096BEE70E07093640960936309509335
:1026E0006609409365091092670980936809109202
:1026F00069096CEE70E070936C0960936B095093FC
:102700006E0940936D0910926F0910927009109232
:1027100071096DEE70E070937409609373095093C2
:1027200076094093750910927709109278091092F2
:1027300079096EEE70E070937C0960937B09509389
:102740007E0940937D0910927F09109280091092B2
:1027500081096FEE70E07093840960938309509350
:102760008609409385091092870910928809109272
:10277000890960EF70E070938C0960938B09509326
:102780008E0940938D0910928F0910929009109232
:10279000910961EF70E070939409609393095093ED
:1027A0009609409395091092970980939809109281
:1027B000990962EF70E070939C0960939B095093B4
:1027C0009E0940939D0910929F091092A0091092B2
:1027D000A10963EF70E07093A4096093A30950937B
:1027E000A6094093A5091092A7091092A809109272
:1027F000A90964EF70E07093AC096093AB09509342
:10280000AE094093AD091092AF091092B009109231
:10281000B10965EF70E07093B4096093B309509308
:10282000B6094093B5091092B7091092B8091092F1
:10283000B90966EF70E07093BC096093BB095093CF
:10284000BE094093BD091092BF091092C0091092B1
:10285000C10967EF70E07093C4096093C309509396
:10286000C6094093C5091092C7091092C809109271
:10287000C90968EF70E07093CC096093CB0950935D
:10288000CE094093CD091092CF091092D009109231
:10289000D10969EF70E07093D4096093D309509324
:1028A000D6094093D5091092D7091092D8091092F1
:1028B000D9096AEF70E07093DC096093DB095093EB
:1028C000DE094093DD091092DF091092E0091092B1
:1028D000E1096BEF70E07093E4096093E3095093B2
:1028E000E6094093E5091092E7091092E809109271
:1028F000E9096CEF70E07093EC096093EB09509379
:10290000EE094093ED091092EF091092F009109230
:10291000F1096DEF70E07093F4096093F30950933F
:10292000F6094093F5091092F7091092F80980937F
:10293000F9091092FA096EEF70E07093FC09609348
:10294000FB095093FE094093FD091092FF09109274
:10295000000A8093010A1092020A6FEF70E07093F0
:10296000040A6093030A5093060A4093050A1092E2
:10297000070A8093080A8093090A10920A0A60E005
:1029800071E070930C0A60930B0A50930E0A409307
:102990000D0A10920F0A1092100A8093110A1092D9
:1029A000120A61E071E07093140A6093130A509365
:1029B000160A4093150A1092170A1092180A80936B
:1029C000190A10921A0A62E071E070931C0A60936F
:1029D0001B0A50931E0A40931D0A10921F0A109260
:1029E000200A8093210A1092220A63E071E070931A
:1029F000240A6093230A5093260A4093250A1092D2
:102A0000270A1092280A8093290A10922A0A64E061
:102A100071E070932C0A60932B0A50932E0A409316
:102A20002D0A10922F0A1092300A8093310A1092C8
:102A3000320A65E071E07093340A6093330A509370
:102A4000360A4093350A1092370A1092380A80935A
:102A5000390A10923A0A66E071E070933C0A60937A
:102A60003B0A50933E0A40933D0A10923F0A10924F
:102A7000400A8093410A1092420A67E071E0709325
:102A8000440A6093430A5093460A4093450A1092C1
:102A9000470A1092480A8093490A10924A0A68E04D
:102AA00071E070934C0A60934B0A50934E0A409326
:102AB0004D0A10924F0A1092500A8093510A1092B8
:102AC000520A69E071E07093540A6093530A50937C
:102AD000560A4093550A1092570A1092580A80934A
:102AE000590A10925A0A6AE071E070935C0A609386
:102AF0005B0A50935E0A40935D0A10925F0A10923F
:102B0000600A8093610A1092620A6BE071E0709330
:102B1000640A6093630A5093660A4093650A1092B0
:102B2000670A1092680A8093690A10926A0A6CE038
:102B300071E070936C0A60936B0A50936E0A409335
:102B40006D0A10926F0A1092700A8093710A1092A7
:102B5000720A6DE071E07093740A6093730A509387
:102B6000760A4093750A1092770A1092780A809339
:102B7000790A10927A0A6EE071E070937C0A609391
:102B80007B0A50937E0A40937D0A10927F0A10922E
:102B9000800A8093810A1092820A6FE071E070933C
:102BA000840A6093830A5093860A4093850A1092A0
:102BB000870A1092880A8093890A10928A0A60E133
:102BC00071E070938C0A60938B0A50938E0A409345
:102BD0008D0A10928F0A1092900A8093910A109297
:102BE000920A61E171E07093940A6093930A3093C2
:102BF000960A2093950A1092970A1092980A1092BA
:102C0000990A62E171E070939C0A60939B0A309389
:102C10009E0A20939D0A10929F0A1092A00A109279
:102C2000A10A63E171E07093A40A6093A30A309350
:102C3000A60A2093A50A1092A70A1092A80A109239
:102C4000A90A64E171E07093AC0A6093AB0A309317
:102C5000AE0A2093AD0A1092AF0A1092B00A1092F9
:102C6000B10A65E171E07093B40A6093B30A3093DE
:102C7000B60A2093B50A1092B70A1092B80A1092B9
:102C8000B90A66E171E07093BC0A6093BB0A3093A5
:102C9000BE0A2093BD0A1092BF0A1092C00A109279
:102CA000C10A67E171E07093C40A6093C30A30936C
:102CB000C60A2093C50A1092C70A1092C80A109239
:102CC000C90A68E171E07093CC0A6093CB0A309333
:102CD000CE0A2093CD0A1092CF0A1092D00A1092F9
:102CE000D10A69E171E07093D40A6093D30A3093FA
:102CF000D60A2093D50A1092D70A1092D80A1092B9
:102D0000D90A6AE171E07093DC0A6093DB0A3093C0
:102D1000DE0A2093DD0A1092DF0A1092E00A109278
:102D2000E10A6BE171E07093E40A6093E30A309387
:102D3000E60A2093E50A1092E70A1092E80A109238
:102D4000E90A6CE171E07093EC0A6093EB0A30934E
:102D5000EE0A2093ED0A1092EF0A1092F00A1092F8
:102D6000F10A6DE171E07093F40A6093F30A309315
:102D7000F60A2093F50A1092F70A1092F80A1092B8
:102D8000F90A6EE171E07093FC0A6093FB0A3093DC
:102D9000FE0A2093FD0A1092FF0A1092000B109277
:102DA000010B6FE171E07093040B6093030B3093A0
:102DB000060B2093050B1092070B1092080B109234
:102DC000090B60E271E070930C0B60930B0B309376
:102DD0000E0B20930D0B10920F0B1092100B1092F4
:102DE000110B61E271E07093140B6093130B30933D
:102DF000160B2093150B1092170B1092180B1092B4
:102E0000190B62E271E070931C0B60931B0B309303
:102E10001E0B20931D0B10921F0B1092200B109273
:102E2000210B63E271E07093240B6093230B3093CA
:102E3000260B2093250B1092270B1092280B109233
:102E4000290B64E271E070932C0B60932B0B309391
:102E50002E0B20932D0B10922F0B1092300B1092F3
:102E6000310B65E271E07093340B6093330B309358
:102E7000360B2093350B1092370B1092380B1092B3
:102E8000390B66E271E070933C0B60933B0B30931F
:102E90003E0B20933D0B10923F0B1092400B109273
:102EA000410B67E271E07093440B6093430B3093E6
:102EB000460B2093450B1092470B1092480B109233
:102EC000490B68E271E070934C0B60934B0B3093AD
:102ED0004E0B20934D0B10924F0B1092500B1092F3
:102EE000510B69E271E07093540B6093530B309374
:102EF000560B2093550B1092570B1092580B809342
:102F0000590B10925A0B6AE271E070935C0B60935C
:102F10005B0B30935E0B20935D0B10925F0B109256
:102F2000600B8093610B1092620B6BE271E0709307
:102F3000640B6093630B3093660B2093650B1092C8
:102F4000670B1092680B8093690B10926A0B6CE20E
:102F500071E070936C0B60936B0B30936E0B20934E
:102F60006D0B10926F0B1092700B8093710B10927F
:102F7000720B6DE271E07093740B6093730B30937E
:102F8000760B2093750B1092770B1092780B809331
:102F9000790B10927A0B6EE271E070937C0B609368
:102FA0007B0B30937E0B20937D0B10927F0B109246
:102FB000800B8093810B1092820B6FE271E0709313
:102FC000840B6093830B3093860B2093850B1092B8
:102FD000870B1092880B8093890B10928A0B60E309
:102FE00071E070938C0B60938B0B30938E0B20935E
:102FF0008D0B10928F0B8093900B8093910B1092FE
:10300000920B61E371E07093940B6093930B309398
:10301000960B2093950B1092970B1092980B809320
:10302000990B10929A0B62E371E070939C0B609382
:103030009B0B30939E0B20939D0B10929F0B109235
:10304000A00B8093A10B1092A20B63E371E070932D
:10305000A40B6093A30B3093A60B2093A50B1092A7
:10306000A70B1092A80B8093A90B1092AA0B64E3F4
:1030700071E07093AC0B6093AB0B3093AE0B20936D
:10308000AD0B1092AF0B1092B00B8093B10B10925E
:10309000B20B65E371E07093B40B6093B30B3093A4
:1030A000B60B2093B50B1092B70B1092B80B809310
:1030B000B90B1092BA0B66E371E07093BC0B60938E
:1030C000BB0B3093BE0B2093BD0B1092BF0B109225
:1030D000C00B1092C10B8093C20B67E371E0709339
:1030E000C40B6093C30B3093C60B2093C50B109297
:1030F000C70B1092C80B1092C90B8093CA0B68E3E0
:1031000071E07093CC0B6093CB0B3093CE0B20937C
:10311000CD0B1092CF0B1092D00B1092D10B80934D
:10312000D20B69E371E07093D40B6093D30B3093AF
:10313000D60B2093D50B1092D70B1092D80B109270
:10314000D90B8093DA0B6AE371E07093DC0B609328
:10315000DB0B3093DE0B2093DD0B1092DF0B109214
:10316000E00B1092E10B8093E20B6BE371E0709344
:10317000E40B6093E30B3093E60B2093E50B109286
:10318000E70B1092E80B1092E90B8093EA0B6CE3CB
:1031900071E07093EC0B6093EB0B3093EE0B20938C
:1031A000ED0B1092EF0B1092F00B1092F10B80933D
:1031B000F20B6DE371E07093F40B6093F30B3093BB
:1031C000F60B2093F50B1092F70B8093F80B1092EF
:1031D000F90B8093FA0B6EE371E07093FC0B609334
:1031E000FB0B3093FE0B2093FD0B1092FF0B109204
:1031F000000C1092010C8093020C6FE371E070934D
:10320000040C6093030C3093060C2093050C109271
:10321000070C1092080C1092090C80930A0C60E4C1
:1032200071E070930C0C60930B0C30930E0C209398
:103230000D0C10920F0C1092100C1092110C809328
:10324000120C61E471E07093140C6093130C3093D2
:10325000160C2093150C1092170C1092180C10924B
:10326000190C80931A0C62E471E070931C0C60934B
:103270001B0C30931E0C20931D0C10921F0C1092EF
:10328000200C1092210C8093220C63E471E0709367
:10329000240C6093230C3093260C2093250C109261
:1032A000270C1092280C1092290C80932A0C64E4AD
:1032B00071E070932C0C60932B0C30932E0C2093A8
:1032C0002D0C10922F0C1092300C1092310C809318
:1032D000320C65E471E07093340C6093330C3093DE
:1032E000360C2093350C1092370C1092380C10923B
:1032F000390C80933A0C66E471E070933C0C609357
:103300003B0C30933E0C20933D0C10923F0C1092DE
:10331000400C1092410C8093420C67E471E0709372
:10332000440C6093430C3093460C2093450C109250
:10333000470C1092480C1092490C80934A0C68E498
:1033400071E070934C0C60934B0C30934E0C2093B7
:103350004D0C10924F0C1092500C1092510C809307
:10336000520C69E471E07093540C6093530C3093E9
:10337000560C2093550C1092570C1092580C10922A
:10338000590C80935A0C6AE471E070935C0C609362
:103390005B0C30935E0C20935D0C10925F0C1092CE
:1033A000600C1092610C8093620C8BE491E090931E
:1033B000640C8093630C6BE070E07093660C609318
:1033C000650C1092670C1092680C1092690C8CE4DA
:1033D00091E090936C0C80936B0C8CE090E0909358
:1033E0006E0C80936D0C10926F0C1092700C1092FA
:1033F000710C8DE491E09093740C8093730CEDE06C
:10340000F0E0F093760CE093750C1092770C10922C
:10341000780C1092790C8EE491E090937C0C809360
:103420007B0C6EE070E070937E0C60937D0C1092CC
:103430007F0C1092800C1092810C8FE491E090939D
:10344000840C8093830C8FE090E09093860C8093A3
:10345000850C1092870C1092880C1092890C80E5D4
:1034600091E090938C0C80938B0CE0E1F0E0F09372
:103470008E0CE0938D0C10928F0C1092900C109289
:10348000910C89819A818F5A9E4F90930A02809362
:1034900009021092990C10929A0C10929B0C1092A7
:1034A0009C0C10929D0C10929E0C10929F0C1092EE
:1034B000A00C1092A10C1092A20C1092A30C1092CE
:1034C000A40C1092A50C1092A60C1092A70C1092AE
:1034D000A80C67E070E07093750D6093740D5093C5
:1034E000770D4093760D3093790D2093780DB0923F
:1034F0007B0DA0927A0D61E087E00E94C90261E035
:103500008091760D0E94C90261E08091780D0E9441
:10351000C90261E08091780D0E94990287E090E0F5
:103520009093750D8093740DE4E3FDE011929DE09E
:10353000E437F907D9F700E010E080917A0D909117
:103540007B0D08171907ECF520E04FE0B80184E285
:103550009DE00E94890317FD0EC080917A0D909125
:103560007B0D081719073CF427E04BE0B80184E213
:103570009DE00E94890320E049E0B80184E29DE0DB
:103580000E94890317FD1AC080917A0D90917B0DDE
:10359000081719072CF4B80184E29DE00E9410047A
:1035A00080917A0D90917B0D081719073CF420E06B
:1035B0004CE0B80184E29DE00E9489030F5F1F4F39
:1035C000BCCF1092DC0C1092DD0CEEEDFCE06DE057
:1035D000EE31F60711F01192FACF80E88093DB0C00
:1035E0000F900F90DF91CF911F910F91FF90EF906F
:1035F000DF90CF90BF90AF909F908F907F906F9013
:103600005F904F903F902F90089583E99CE008973A
:103610002091090230910A022150310930930A02A7
:103620002093090222E08B30920789F70895CF9307
:10363000DF93CDB7DEB76D970FB6F894DEBF0FBE40
:10364000CDBF789484B5826084BD84B5816084BD2B
:1036500085B5826085BD85B5816085BD80916E0030
:10366000816080936E001092810080918100826061
:10367000809381008091810081608093810080919E
:1036800080008160809380008091B100846080938D
:10369000B1008091B00081608093B00080917A0089
:1036A000846080937A0080917A00826080937A00AF
:1036B00080917A00816080937A0080917A0080689E
:1036C00080937A001092C1001092D70C1092D80CFF
:1036D0001092D90C1092DA0C1092950C1092960C54
:1036E0001092970C1092980C68EB7BE080E090E0D1
:1036F0000E9405038CE691E09093D60C8093D50C44
:10370000E0917C01F0917D0182E08083E09178017D
:10371000F09179011082E0917A01F0917B0180E1D2
:10372000808310928401E0918001F091810186E014
:103730008083E0917E01F0917F01808180618083B0
:10374000E0917E01F0917F01808188608083E0912B
:103750007E01F0917F01808180688083E0917E010D
:10376000F0917F0180818F7D80832FB7F8948091C5
:103770007C0D90917D0DA0917E0DB0917F0D2FBF9E
:103780008093950C9093960CA093970CB093980C03
:103790008091D50C9091D60CDC01ED91FC910280CA
:1037A000F381E02D41E150E06AE571E009956AE0BE
:1037B00070E080E090E00E94050381E08093A90C16
:1037C00060E082E00E94C90261E083E00E94C902D9
:1037D00061E084E00E94C90260E08EE00E94C902BC
:1037E00060E086E00E94C90261E087E00E94C902B1
:1037F00061E088E00E94C90261E089E00E94C9029C
:10380000E2E8FDE0BDE0E339FB0711F01192FACFE9
:10381000FE0131967F0100E8202E312C2E01F5E1CA
:103820004F0E511C86E00E94A401009779F02FB73B
:10383000F89440917C0D50917D0D60917E0D7091BA
:103840007F0D2FBF5093960D4093950D2FB7F89491
:1038500040917C0D50917D0D60917E0D70917F0D9A
:103860002FBF2091950D3091960D8901330F220BBA
:10387000330B401B510B620B730B43335105610536
:10388000710508F416C22091930D3091940D8217A2
:10389000930709F40EC29093940D8093930DE2E880
:1038A000FDE02DE0E339F20711F01192FACF00E0CC
:1038B00010E080917A0D90917B0D081719072CF478
:1038C000B80184E29DE00E9410040F5F1F4F063094
:1038D000110579F761E083E00E9499028BE490E0A2
:1038E0000197F1F760E083E00E94990264E082E0D2
:1038F0000E94CD01898364E082E00E94CD018A8329
:1039000064E082E00E94CD018B83F701AE014C5F41
:103910005F4F80E090E071E0E417F50799F028E050
:1039200030E0813191054CF46081DC01AE57B24F3B
:10393000660F660B67236C9301962150310989F756
:103940003196EACF80E480937C0080917A00806495
:1039500080937A0080917A0086FDFCCF8091780078
:1039600020917900EBE8F1E03197F1F790E0922BAC
:103970006CEC70E00E941B1F6E5F7F4F673071051B
:103980002CF4709301016093000106C086E090E082
:1039900090930101809300018091000190910101B9
:1039A000029734F482E090E090930101809300014B
:1039B000A2E8BDE080E090E02D912223A9F0FC0177
:1039C00013E0F595E7951A95E1F7E552F34F9C0161
:1039D00027703327A10102C0559547952A95E2F734
:1039E0009A013081232B208301968131910521F7A3
:1039F00000E010E0C12CD12C0E94AA1E20E531E08D
:103A000040E050E00E94DA1E4B015C016635710512
:103A10008105910589F3CB0182579109029760F3E3
:103A2000C40168E070E00E941B1F910102C035953F
:103A300027958A95E2F7C40197FC079673E0959560
:103A400087957A95E1F7FC01E552F34F83812823AE
:103A500009F05EC0C40163E0880F991F6A95E1F721
:103A6000FC01E55FFD4F80809180628073809481CE
:103A70008581A6802781A0E16A16710430F4F301E4
:103A8000EE57F24F30813323C9F1882319F0B1E0AA
:103A9000B093810D992319F0E1E0E093800D9A82B3
:103AA00089827C826B829D838E83AF822887C70147
:103AB0002D8F0E948D008091090290910A022D8D18
:103AC000F6E58F169104A1F032E7831A910842E0DF
:103AD0008416910468F0A1100BC0211109C0AFEF4A
:103AE000CA1ADA0AB4E06B16710411F40F5F1F4FA3
:103AF000029790930A02809309020AC080910902FA
:103B000090910A02019790930A028093090274CF60
:103B10005AE0C516D1040CF46FCF8091860D88232E
:103B200009F466C084E1D7011D928A95E9F7F7018F
:103B30000115110539F021E030E031832083015077
:103B4000110902C0118210823296E415F50581F741
:103B50000E94AA1E29E030E040E050E00E94DA1EF8
:103B600064317105E8F4660F771FF701E60FF71F60
:103B7000808191810197A1F488E0EBE9F5E0D20121
:103B800001900D928A95E1F7C2010E948D0080910B
:103B9000090290910A02019790930A028093090208
:103BA0000E94AA1E29E030E040E050E00E94DA1EA8
:103BB00064317105E8F4660F771FF701E60FF71F10
:103BC000808191810197A1F488E0E3EAF5E0D201D8
:103BD00001900D928A95E1F7C2010E948D008091BB
:103BE000090290910A02019790930A0280930902B8
:103BF0003AE1C32E31E0D32EA12CB12C450183E054
:103C0000959487948A95E1F751E0580D00E010E013
:103C1000C6018A5191403C01B801660D771DF6013D
:103C2000E00FF11F8081282F30E081E090E0002E2E
:103C300002C0959587950A94E2F782239323892BF6
:103C400039F126E0759567952A95E1F780917A0D0F
:103C500090917B0D68177907DCF4FB0193E0EE0F80
:103C6000FF1F9A95E1F7E80DF91DEC5DF24F2089F1
:103C7000C101002E02C0959587950A94E2F7282B82
:103C8000208B452F84E29DE05D8F0E9489035D8D2E
:103C90000F5F1F4F0830110509F0BECF3FEFA31A89
:103CA000B30A48E0C40ED11C50E4A516B10409F0D3
:103CB000A5CF0E949801B6CD8F929F92AF92BF92EE
:103CC000CF92DF92EF92FF92CF93DF93EC01688166
:103CD00079818A819B81611571058105910521F4A6
:103CE00064E279ED8BE597E02DE133EF41E050E0C0
:103CF0000E94DA1E49015A019B01AC01A7EAB1E416
:103D00000E94F91E6B017C01ACEEB4EFA501940199
:103D10000E94071FDC01CB018C0D9D1DAE1DBF1D38
:103D2000B7FF03C00197A109B04888839983AA838C
:103D3000BB83BC01CD019F77DF91CF91FF90EF90C6
:103D4000DF90CF90BF90AF909F908F9008950E948A
:103D50005C1E089582E091E00E945C1E08956093CD
:103D6000020170930301809304019093050108956B
:103D7000A1E21A2EAA1BBB1BFD010DC0AA1FBB1F6F
:103D8000EE1FFF1FA217B307E407F50720F0A21BE1
:103D9000B30BE40BF50B661F771F881F991F1A944E
:103DA00069F760957095809590959B01AC01BD0178
:103DB000CF010895052E97FB1EF400940E94F11E7A
:103DC00057FD07D00E94B81E07FC03D04EF40C9498
:103DD000F11E50954095309521953F4F4F4F5F4FC5
:103DE000089590958095709561957F4F8F4F9F4F67
:103DF00008950E940C1FA59F900DB49F900DA49F45
:103E0000800D911D11240895B7FF0C94F91E0E9496
:103E1000F91E821B930B0895A29FB001B39FC001AE
:103E2000A39F700D811D1124911DB29F700D811DE6
:103E30001124911D089597FB072E16F4009407D0C6
:103E400077FD09D00E942F1F07FC05D03EF4909506
:103E500081959F4F0895709561957F4F0895AA1B96
:103E6000BB1B51E107C0AA1FBB1FA617B70710F065
:103E7000A61BB70B881F991F5A95A9F78095909597
:103E8000BC01CD010895EE0FFF1F0590F491E02DC8
:103E9000099481E090E0F8940C944E1F10E0C2E683
:103EA000D0E004C0FE010E94431F2196C336D10713
:063EB000C9F7F894FFCFF2
:103EB600020001000000000000002F01AB00F80026
:103EC600D600EA00760107000900000000000000A5
:103ED60000000000000000000000000000000000DC
:103EE60000000000000000000000000000000000CC
:103EF60000000000000000000000000000000000BC
:103F060000000000000000000000564D4450565FBF
:0C3F1600317C315F564D4450560D0A00BE
:00000001FF
